{
    "contractName": "Token",
    "abi": [
        {
            "inputs": [],
            "stateMutability": "nonpayable",
            "type": "constructor"
        },
        {
            "inputs": [
                {
                    "internalType": "address",
                    "name": "account",
                    "type": "address"
                }
            ],
            "name": "balanceOf",
            "outputs": [
                {
                    "internalType": "uint256",
                    "name": "",
                    "type": "uint256"
                }
            ],
            "stateMutability": "view",
            "type": "function"
        },
        {
            "inputs": [],
            "name": "name",
            "outputs": [
                {
                    "internalType": "string",
                    "name": "",
                    "type": "string"
                }
            ],
            "stateMutability": "view",
            "type": "function"
        },
        {
            "inputs": [],
            "name": "owner",
            "outputs": [
                {
                    "internalType": "address",
                    "name": "",
                    "type": "address"
                }
            ],
            "stateMutability": "view",
            "type": "function"
        },
        {
            "inputs": [],
            "name": "symbol",
            "outputs": [
                {
                    "internalType": "string",
                    "name": "",
                    "type": "string"
                }
            ],
            "stateMutability": "view",
            "type": "function"
        },
        {
            "inputs": [],
            "name": "totalSupply",
            "outputs": [
                {
                    "internalType": "uint256",
                    "name": "",
                    "type": "uint256"
                }
            ],
            "stateMutability": "view",
            "type": "function"
        },
        {
            "inputs": [
                {
                    "internalType": "address",
                    "name": "to",
                    "type": "address"
                },
                {
                    "internalType": "uint256",
                    "name": "amount",
                    "type": "uint256"
                }
            ],
            "name": "transfer",
            "outputs": [],
            "stateMutability": "nonpayable",
            "type": "function"
        }
    ],
    "bytecode": "60c0604052601060808190526f26bc902430b9323430ba102a37b5b2b760811b60a0908152610031916000919061009f565b506040805180820190915260038082526213521560ea1b602090920191825261005c9160019161009f565b50620f424060025534801561007057600080fd5b5060025433600081815260046020526040902091909155600380546001600160a01b0319169091179055610132565b828054600181600116156101000203166002900490600052602060002090601f016020900481019282601f106100e057805160ff191683800117855561010d565b8280016001018555821561010d579182015b8281111561010d5782518255916020019190600101906100f2565b5061011992915061011d565b5090565b5b80821115610119576000815560010161011e565b610356806101416000396000f3fe608060405234801561001057600080fd5b50600436106100625760003560e01c806306fdde031461006757806318160ddd146100e457806370a08231146100fe5780638da5cb5b1461012457806395d89b4114610148578063a9059cbb14610150575b600080fd5b61006f61017e565b6040805160208082528351818301528351919283929083019185019080838360005b838110156100a9578181015183820152602001610091565b50505050905090810190601f1680156100d65780820380516001836020036101000a031916815260200191505b509250505060405180910390f35b6100ec61020c565b60408051918252519081900360200190f35b6100ec6004803603602081101561011457600080fd5b50356001600160a01b0316610212565b61012c61022d565b604080516001600160a01b039092168252519081900360200190f35b61006f61023c565b61017c6004803603604081101561016657600080fd5b506001600160a01b038135169060200135610296565b005b6000805460408051602060026001851615610100026000190190941693909304601f810184900484028201840190925281815292918301828280156102045780601f106101d957610100808354040283529160200191610204565b820191906000526020600020905b8154815290600101906020018083116101e757829003601f168201915b505050505081565b60025481565b6001600160a01b031660009081526004602052604090205490565b6003546001600160a01b031681565b60018054604080516020600284861615610100026000190190941693909304601f810184900484028201840190925281815292918301828280156102045780601f106101d957610100808354040283529160200191610204565b336000908152600460205260409020548111156102ee576040805162461bcd60e51b81526020600482015260116024820152704e6f7420656e6f75676820746f6b656e7360781b604482015290519081900360640190fd5b33600090815260046020526040808220805484900390556001600160a01b03939093168152919091208054909101905556fea264697066735822122029cd951e713d1793f4c6526261b12c81d55ba090cb6afc4ae2a1766dc97cb6cc64736f6c63430007030033",
    "sourcePath": "/Users/duc.nguyen/Workspace/github/samples/solidity/hardhat-tutorial/contracts/Token.sol",
    "compiler": {
        "name": "solc",
        "version": "0.7.3+commit.9bfce1f6"
    },
    "functionHashes": {
        "balanceOf(address)": "70a08231",
        "name()": "06fdde03",
        "owner()": "8da5cb5b",
        "symbol()": "95d89b41",
        "totalSupply()": "18160ddd",
        "transfer(address,uint256)": "a9059cbb"
    },
    "gasEstimates": {
        "creation": {
            "codeDepositCost": "170800",
            "executionCost": "infinite",
            "totalCost": "infinite"
        },
        "external": {
            "balanceOf(address)": "1164",
            "name()": "infinite",
            "owner()": "1081",
            "symbol()": "infinite",
            "totalSupply()": "998",
            "transfer(address,uint256)": "42989"
        }
    }
}